S01600004175746F5F6675656C5F70756D702E7372656349
S113000009C016C015C014C013C012C0DBC010C094
S11300100FC00EC011241FBECFE9CDBF20E0A0E663
S1130020B0E001C01D92A336B207E1F725D0FCC0B1
S1130030E7CF87B3866087BBB898C09AC298C19847
S113004083B7856083BF8FB582608FBD89B78460B5
S113005089BF86E186BFB09908C08091600088603E
S1130060809360001092620005C080E090E0C8D0E8
S11300708093620078940895DCDFC6E2D2E0809138
S1130080600083FD78C080916200882359F18091DB
S1130090600081110FC080916100893158F0F8949B
S11300A0C29AC19A8091600081608093600010922E
S11300B0610078948091600080FF14C09091610089
S11300C080916200981770F0F894C298C19880915A
S11300D060008E7F809360008091600082608093D6
S11300E060007894B09919C08091600082FD15C0B9
S11300F0F894C298C198809160008E7F80936000CC
S113010080916000826080936000809160008460D0
S1130110809360001092610078948091600082FF67
S11301200FC080916100863258F0F894C29AC19A47
S113013080916000816080936000C0936100789436
S1130140B09B19C08091600082FF15C0F894C298DA
S1130150C198809160008E7F8093600080916000E0
S1130160826080936000809160008B7F8093600048
S11301701092610078948091600083FF21C0B0994F
S11301800AC0809161008D30D8F088B38D2788BB78
S11301901092610015C0F894C19880916000877F27
S11301A080936000809162008F3010F4109262009E
S11301B06091620080E090E02AD010926000789410
S11301C000005DCF1F920F920FB60F9211248F93F0
S11301D0809161008F5F809361008091600083FF54
S11301E009C0809162008F3F29F0809162008F5F87
S11301F0809362008F910F900FBE0F901F901895FF
S1130200E199FECF8EBBE09A99278DB30895262FEE
S1130210E199FECF1CBA8EBB2DBB0FB6F894E29ABF
S10F0220E19A0FBE01960895F894FFCFF8
S9030000FC
